:020000040000FA
:100000000C9436000C945E000C945E000C945E0020
:100010000C945E000C945E000C945E000C945E00E8
:100020000C945E000C945E000C945E000C945E00D8
:100030000C945E000C945E000C945E000C945E00C8
:100040000C94FB010C945E000C946B020C94450222
:100050000C945E000C945E000C945E000C945E00A8
:100060000C945E000C945E009D02690411241FBE76
:10007000CFEFD8E0DEBFCDBF21E0A6E2B1E001C006
:100080001D92A63DB207E1F711E0A0E0B1E0ECE57A
:10009000FDE002C005900D92A632B107D9F710E03D
:1000A000C5E3D0E004C02197FE010E94A904C43337
:1000B000D107C9F70E9413030C94A1060C94000009
:1000C0003FB7F8948091270190912801A0912901D0
:1000D000B0912A0126B5A89B05C02F3F19F00196C3
:1000E000A11DB11D3FBFBA2FA92F982F8827BC0192
:1000F000CD01620F711D811D911D42E0660F771FBA
:10010000881F991F4A95D1F708950895AF92BF921D
:10011000CF92DF92EF92FF920F931F93CF93DF93D3
:100120006C017B018B01040F151FEB015E01AE1802
:10013000BF08C017D10759F06991D601ED91FC9124
:100140000190F081E02DC6010995892B79F7C50151
:10015000DF91CF911F910F91FF90EF90DF90CF90A3
:10016000BF90AF900895FC01538D448D252F30E052
:10017000842F90E0821B930B541710F0CF960895B4
:1001800001970895FC01918D828D981761F0A28DE1
:10019000AE0FBF2FB11D5D968C91928D9F5F9F73A7
:1001A000928F90E008958FEF9FEF08952FB7F89406
:1001B00080912B0190912C01A0912D01B0912E01E5
:1001C0002FBF8093370190933801A0933901B093EA
:1001D0003A018FE291E00E94C20097FF26C02FB73C
:1001E000F89480912B0190912C01A0912D01B09158
:1001F0002E012FBF40913701509138016091390194
:1002000070913A01841B950BA60BB70B40913301FB
:100210005091340160913501709136018417950732
:10022000A607B707B0F28FEF9FEF0895FC01918DFD
:10023000828D981731F0828DE80FF11D858D90E049
:1002400008958FEF9FEF0895FC01918D228D892FE6
:1002500090E0805C9F4F821B91098F7399270895CE
:100260008FE291E00E94240121E0892B09F420E033
:10027000822F089580E090E0892B29F00E943001C0
:1002800081110C9400000895FC01A48DA80FB92FD2
:10029000B11DA35ABF4F2C91848D90E001968F73AE
:1002A0009927848FA689B7892C93A089B1898C91CD
:1002B000837080648C93938D848D981306C002881C
:1002C000F389E02D80818F7D80830895EF92FF92E6
:1002D0000F931F93CF93DF93EC0181E0888F9B8D69
:1002E0008C8D98131AC0E889F989808185FF15C023
:1002F0009FB7F894EE89FF896083E889F989808146
:100300008370806480839FBF81E090E0DF91CF9114
:100310001F910F91FF90EF900895F62E0B8D10E036
:100320000F5F1F4F0F731127E02E8C8D8E110CC0A5
:100330000FB607FCFACFE889F989808185FFF5CFF0
:10034000CE010E944401F1CFEB8DEC0FFD2FF11D8A
:10035000E35AFF4FF0829FB7F8940B8FEA89FB892D
:1003600080818062CFCFCF93DF93EC01888D88238B
:10037000B9F0AA89BB89E889F9898C9185FD03C008
:10038000808186FD0DC00FB607FCF7CF8C9185FFED
:10039000F2CF808185FFEDCFCE010E944401E9CFED
:1003A000DF91CF9108950F931F93CF93DF93EC01CB
:1003B00088819981009759F02A813B812617370758
:1003C00030F081E0DF91CF911F910F9108958B0163
:1003D0006F5F7F4F0E94D405009759F099838883FF
:1003E0001B830A832C813D81232B59F7FC0110824A
:1003F000E8CF80E0E7CF1F920F920FB60F92112443
:100400002F933F938F939F93AF93BF9380912B0133
:1004100090912C01A0912D01B0912E0130912601D7
:1004200023E0230F2D3758F50196A11DB11D209310
:10043000260180932B0190932C01A0932D01B09362
:100440002E018091270190912801A0912901B0915E
:100450002A010196A11DB11D8093270190932801C7
:10046000A0932901B0932A01BF91AF919F918F91E1
:100470003F912F910F900FBE0F901F90189526E877
:10048000230F0296A11DB11DD2CF1F920F920FB65E
:100490000F9211242F933F934F935F936F937F930A
:1004A0008F939F93AF93BF93EF93FF938FE291E06E
:1004B0000E944401FF91EF91BF91AF919F918F9165
:1004C0007F916F915F914F913F912F910F900FBE50
:1004D0000F901F9018951F920F920FB60F92112434
:1004E0002F938F939F93EF93FF93E0913F01F091B0
:1004F00040018081E0914501F091460182FD1BC0E1
:100500009081809148018F5F8F73209149018217FC
:1005100041F0E0914801F0E0E15DFE4F958F80935E
:100520004801FF91EF919F918F912F910F900FBEF6
:100530000F901F9018958081F4CF10923201109285
:10054000310188EE93E0A0E0B0E080933301909316
:100550003401A0933501B09336018AE091E0909385
:10056000300180932F0185EC90E090933C018093C3
:100570003B0184EC90E090933E0180933D0180EC40
:1005800090E09093400180933F0181EC90E0909344
:1005900042018093410182EC90E09093440180936A
:1005A000430186EC90E090934601809345011092C0
:1005B00048011092490110924A0110924B01109289
:1005C000CD011092CC011092CF011092CE01109269
:1005D000D1011092D00170E060E08CEC91E00E94BB
:1005E000D3012091CC013091CD01811113C021158F
:1005F000310519F0C9010E944B051092CD011092EE
:10060000CC011092D1011092D0011092CF01109222
:10061000CE0108951092D1011092D00164E271E0F0
:10062000C9010C949A06CF93DF93CDB7DEB7289714
:100630000FB6F894DEBF0FBECDBF789484B582604C
:1006400084BD84B5816084BD85B5826085BD85B576
:10065000816085BD80916E00816080936E001092F4
:10066000810080918100826080938100809181006F
:100670008160809381008091800081608093800000
:100680008091B10084608093B1008091B00081605E
:100690008093B00080917A00846080937A0080918A
:1006A0007A00826080937A0080917A0081608093E2
:1006B0007A0080917A00806880937A001092C1005D
:1006C000E0913F01F091400182E08083E0913B01A5
:1006D000F0913C011082E0913D01F0913E018FECE0
:1006E000808310924701E0914301F091440186E03C
:1006F0008083E0914101F09142018081806180839B
:10070000E0914101F0914201808188608083E09115
:100710004101F0914201808180688083E091410134
:10072000F091420180818F7D808390E0E92E90E0FE
:10073000F92E8FE291E00E942401181619060CF0A0
:10074000A3C01A8219821C821B821E821D8270E045
:1007500060E0CE0101960E94D30129813A81811186
:100760002BC02115310519F0C9010E944B051A82D1
:1007700019821E821D821C821B820E94D60097FD58
:1007800023C08F8318860D811E810F5F1F4FB80114
:10079000CE0101960E94D301882379F329813A8101
:1007A0008D819E81BE01695F7F4F820F931F0E94E2
:1007B0009A061E830D83E1CF1E821D8264E271E0E2
:1007C000C9010E949A06D9CF8091CC019091CD01A8
:1007D000009709F467C069817A816115710509F490
:1007E0005FC04091CE015091CF012D813E814217D3
:1007F000530708F455C00E949A068D819E819093FC
:10080000D1018093D0011E821D8289819A81009737
:1008100011F00E944B054CE050E068E171E08FE27E
:1008200091E00E9486004091D0015091D1016091E9
:10083000CC017091CD018FE291E00E9486000E9470
:1008400060002B013C0180ED882E87E0982EA12CC2
:10085000B12C0E9460006419750986099709683EE9
:10086000734081059105A8F321E0821A9108A1083F
:10087000B10888EE480E83E0581E611C711C81147B
:100880009104A104B10429F7E114F10409F451CF52
:100890000E943001882309F44CCF0E94000049CF08
:1008A0000E944B0589819A819093CD018093CC0160
:1008B0008B819C819093CF018093CE018D819E810D
:1008C0009093D1018093D0011A8219821C821B82DD
:1008D0009ACF8091CC019091CD01009711F00C94AA
:1008E0004B0508952F923F924F925F926F927F92A5
:1008F0008F929F92AF92BF92CF92DF92EF92FF9230
:100900000F931F93CF93DF93CDB7DEB7CA1BDB0BDB
:100910000FB6F894DEBF0FBECDBF09942A88398880
:1009200048885F846E847D848C849B84AA84B98487
:10093000C884DF80EE80FD800C811B81AA81B98193
:10094000CE0FD11D0FB6F894DEBF0FBECDBFED01A7
:100950000895EE0FFF1F0590F491E02D09940F9379
:100960001F93CF93DF938230910510F482E090E0E3
:10097000E091D401F091D50130E020E0B0E0A0E0BA
:10098000309799F42115310509F44AC0281B390B19
:1009900024303105D8F58A819B816115710589F173
:1009A000FB0193838283FE0111C04081518102814A
:1009B000138148175907E0F04817590799F4109721
:1009C00061F012960C93129713961C933296CF01F6
:1009D000DF91CF911F910F9108950093D40110934F
:1009E000D501F4CF2115310551F04217530738F0E6
:1009F000A901DB019A01BD01DF01F801C1CFEF01BF
:100A0000F9CF9093D5018093D401CDCFFE01E20FB1
:100A1000F31F819391932250310939832883D7CFD3
:100A20002091D2013091D301232B41F42091020176
:100A3000309103013093D3012093D2012091000122
:100A4000309101012115310541F42DB73EB7409198
:100A5000040150910501241B350BE091D201F09166
:100A6000D301E217F307A0F42E1B3F0B2817390719
:100A700078F0AC014E5F5F4F2417350748F04E0FFA
:100A80005F1F5093D3014093D201819391939FCFE5
:100A9000F0E0E0E09CCFCF93DF930097E9F0FC011A
:100AA000329713821282A091D401B091D501ED0149
:100AB00030E020E01097A1F420813181820F931F54
:100AC0002091D2013091D3012817390709F061C074
:100AD000F093D301E093D201DF91CF910895EA0121
:100AE000CE17DF07E8F54A815B819E01411551056C
:100AF000B1F7E901FB83EA8349915991C40FD51FEE
:100B0000EC17FD0761F4808191810296840F951F97
:100B1000E90199838883828193819B838A83F0E0B2
:100B2000E0E012968D919C9113970097B9F52D9165
:100B30003C911197CD010296820F931F2091D20113
:100B40003091D3012817390739F6309751F51092B3
:100B5000D5011092D401B093D301A093D201BCCFA0
:100B6000D383C28340815181840F951FC817D90751
:100B700061F44E5F5F4F88819981480F591F5183FF
:100B800040838A819B81938382832115310509F0FB
:100B9000B0CFF093D501E093D4019ECFFD01DC01ED
:100BA000C0CF13821282D7CFB0E0A0E0EAEDF5E02B
:100BB0000C9474048C01009751F4CB010E94AF0493
:100BC0008C01C801CDB7DEB7E0E10C949004FC01C4
:100BD000E60FF71F9C0122503109E217F30708F4D2
:100BE0009DC0D901CD91DC911197C617D70798F018
:100BF000C530D10530F3CE0104978617970708F367
:100C0000C61BD70B2297C193D1936D937C93CF01D1
:100C10000E944B05D6CF5B01AC1ABD0A4C018C0E6D
:100C20009D1EA091D401B091D501512C412CF12CE5
:100C3000E12C109731F58091D2019091D301881564
:100C4000990509F05CC04616570608F058C0809117
:100C5000000190910101009741F48DB79EB740913A
:100C6000040150910501841B950BE817F90708F062
:100C700055C0F093D301E093D201F90171836083F1
:100C8000A0CF8D919C91119712966C90129713960C
:100C90007C901397A815B90559F56C0142E0C40E74
:100CA000D11CCA14DB0420F1AC014A195B09DA013A
:100CB0001296159780F06282738251834083D90126
:100CC0006D937C93E114F10471F0D7011396FC93BA
:100CD000EE93129776CF22968C0F9D1FF901918388
:100CE0008083F301EFCFF093D501E093D40169CF76
:100CF0004816590608F42C017D01D3019ACFCB0187
:100D00000E94AF047C01009749F0AE01B8010E9437
:100D10009106C8010E944B05870153CF10E000E007
:100D200050CFFB01DC0102C001900D9241505040B8
:100D3000D8F70895FB01DC0101900D920020E1F746
:100D4000089510E0C5E3D0E004C0FE010E94A904AC
:100D50002196C633D107C9F7F894FFCF0000D6011A
:100D600080000000000066018600B300B30124018A
:100D7000C2001601492072656365697665643A2090
:020D8000000071
:107E0000112484B714BE81FFF0D085E080938100F7
:107E100082E08093C00088E18093C10086E0809377
:107E2000C20080E18093C4008EE0C9D0259A86E02C
:107E300020E33CEF91E0309385002093840096BBD3
:107E4000B09BFECF1D9AA8958150A9F7CC24DD24C4
:107E500088248394B5E0AB2EA1E19A2EF3E0BF2EE7
:107E6000A2D0813461F49FD0082FAFD0023811F036
:107E7000013811F484E001C083E08DD089C08234E0
:107E800011F484E103C0853419F485E0A6D080C0E4
:107E9000853579F488D0E82EFF2485D0082F10E0AE
:107EA000102F00270E291F29000F111F8ED06801E7
:107EB0006FC0863521F484E090D080E0DECF843638
:107EC00009F040C070D06FD0082F6DD080E0C81688
:107ED00080E7D80618F4F601B7BEE895C0E0D1E017
:107EE00062D089930C17E1F7F0E0CF16F0E7DF06D8
:107EF00018F0F601B7BEE89568D007B600FCFDCFD4
:107F0000A601A0E0B1E02C9130E011968C91119780
:107F100090E0982F8827822B932B1296FA010C0160
:107F200087BEE89511244E5F5F4FF1E0A038BF0790
:107F300051F7F601A7BEE89507B600FCFDCF97BE46
:107F4000E89526C08437B1F42ED02DD0F82E2BD052
:107F50003CD0F601EF2C8F010F5F1F4F84911BD097
:107F6000EA94F801C1F70894C11CD11CFA94CF0C13
:107F7000D11C0EC0853739F428D08EE10CD085E9AC
:107F80000AD08FE07ACF813511F488E018D01DD067
:107F900080E101D065CF982F8091C00085FFFCCF94
:107FA0009093C60008958091C00087FFFCCF809118
:107FB000C00084FD01C0A8958091C6000895E0E648
:107FC000F0E098E1908380830895EDDF803219F02E
:107FD00088E0F5DFFFCF84E1DECF1F93182FE3DFCA
:107FE0001150E9F7F2DF1F91089580E0E8DFEE27F6
:047FF000FF270994CA
:027FFE00040479
:00000001FF
